S00C00006C6162352E73726563B4
S11300000C9456000C9473000C9473000C947300BD
S11300100C9473000C9473000C9473000C94730090
S11300200C9473000C9473000C9473000C94730080
S11300300C9473000C9473000C9473000C94730070
S11300400C9473000C9473000C9473000C94730060
S11300500C9473000C9473000C9473000C94730050
S11300600C9473000C9473000C9473000C94730040
S11300700C9473000C94F5010C9473000C947300AD
S11300800C9473000C9473000C9473000C94730020
S11300900C9473000C9473000C9473000C94730010
S11300A00C9473000C9473000C94730011241FBE01
S11300B0CFEFDAE0DEBFCDBF11E0A0E0B1E0E8E6CB
S11300C0FBE002C005900D92AA32B107D9F721E0F6
S11300D0AAE2B1E001C01D92AC32B207E1F70E947E
S11300E0D6000C94B2050C9400000000000000003F
S11300F0000000000000000000000895000000005F
S11301000000000000000000000000008A9580301C
S1130110A9F70895282F8AEFF1DF8AEFEFDF8AEF3E
S1130120EDDF8AEFEBDF2A952030A9F70895282F19
S11301302F938AEFEFDF8AEFEDDF8AEFEBDF8AEFB1
S1130140E9DF2F912A95203031F708958AEFE2DF15
S11301508AEFE0DF8AEFDEDF8AEFDCDF08950E94BA
S1130160D8010E9490010895EF92FF920F931F937C
S1130170CF937C018B01C42F8CE00E948A010E94E2
S11301808201C7010E94CA0160E081E00E94C001AF
S1130190C8010E94CA01CC2319F08C2F0E94970039
S11301A0CF911F910F91FF90EF900895CF93DF931C
S11301B0CDB7DEB761970FB6F894DEBF0FBECDBFE3
S11301C00E94AF000E94120211E00E94DC01082F7D
S11301D0113009F118F01230C9F165C00E943202E1
S11301E01F929FED9F931F928F9380E091E09F93C6
S11301F08F93CE0101969F938F930E94C8020FB6EE
S1130200F894DEBF0FBECDBF023309F441C00333FF
S113021009F049C03FC00E9464021F929FED9F9362
S11302201F928F938CE091E09F938F93CE01019660
S11302309F938F930E94C8020FB6F894DEBF0FBE3F
S1130240CDBF013349F1033371F528C00E94640224
S1130250F82E0E9432021F929FED9F931F92FF92ED
S11302601F929F931F928F9386E091E09F938F93A9
S1130270CE0101969F938F930E94C8020FB6F89403
S1130280DEBF0FBECDBF013359F0023361F40AC0A3
S113029011E009C012E007C010E005C012E003C07D
S11302A010E001C011E040E0BE016F5F7F4F82E1CA
S11302B091E00E94B40089CF91B39F70807F892B15
S11302C081BB8BB180688BB90E9475008BB18F772D
S11302D08BB90895CF93C62F811104C08BB18F7B46
S11302E08BB903C08BB180648BB98C2F0E945C01E5
S11302F08C2F8295807F0E945C018DE20E947E009B
S1130300CF91089561E080E00E946A0182E00E943A
S11303108A000895682F6C6080E00E946A01089545
S113032080EF80BB80EC8AB984E10E948A008BB1A3
S11303308F7B8BB980E30E945C018AE00E948A0073
S113034080E30E945C018AE00E948A0080E30E94AC
S11303505C018AE00E948A0080E20E945C018DE2D6
S11303600E947E0068E280E00E946A018FE00E94A1
S11303708A010E94820166E080E00E946A01089579
S113038020E4829FC0011124682B606880E00E94F1
S11303906A010895CF93DF93EC0104C081E00E94C9
S11303A06A01219668816111F9CFDF91CF91089597
S11303B01DB880EF84B90895CF93C0E011C085B112
S11303C08C2F8295807F85B98AE00E948A00669B83
S11303D006C0EC2FF0E0E35EFE4F808104C0CF5FE7
S11303E0CC3068F380E0CF9108951F920F920FB63E
S11303F00F9211242F938F939F93209178008091D3
S1130400790090E0982F8827820F911D90932B01FB
S113041080932A019F918F912F910F900FBE0F907F
S11304201F901895ECE7F0E08081806480838081E0
S113043089608083EAE7F0E080818760808380813F
S113044080628083808188608083808180688083EB
S113045083E080937E001092D80078948081806439
S113046080830895CF93DF9380912A0190912B018B
S113047022E6289FA001299F500D1124EA01D69558
S1130480C795D695C795D695C7959E01A5ECB0E2BC
S11304900E94A502FC01F295E295EF70EF27FF7030
S11304A0EF2728EE33E0E29FC001E39F900DF29F17
S11304B0900D1124481B590B443F514008F03196CC
S11304C08E2FDF91CF9108950E9432022AE5829FF8
S11304D0C001112465E070E00E949102AB01405C10
S11304E05E4F9A01ADECBCEC0E94A502FC01F695AE
S11304F0E795F695E795F695E7959F01220F331F4B
S1130500CF01880F991F880F991F880F991F820F99
S1130510931F481B590B4530510508F031968E2F17
S1130520089597FB072E16F4009407D077FD09D0A1
S11305300E94B40207FC05D03EF4909581959F4F2C
S11305400895709561957F4F0895A29FB001B39F60
S1130550C001A39F700D811D1124911DB29F700DC8
S1130560811D1124911D0895AA1BBB1B51E107C0D5
S1130570AA1FBB1FA617B70710F0A61BB70B881F2F
S1130580991F5A95A9F780959095BC01CD010895BE
S1130590AEE0B0E0EEECF2E00C9489050D891E8922
S11305A086E08C831A8309838FEF9FE79E838D8374
S11305B0AE01475E5F4F6F89788DCE0101960E9430
S11305C0EA02EF81F885E00FF11F10822E96E4E035
S11305D00C94A505ABE0B0E0E0EFF2E00C947B05F1
S11305E06C017B018A01FC0117821682838181FFE1
S11305F0CCC1CE0101963C01F6019381F70193FD34
S1130600859193FF81917F01882309F4BAC18532D2
S113061039F493FD859193FF81917F01853229F40B
S1130620B60190E00E94E104E7CF912C212C312CFB
S1130630FFE1F315D8F08B3279F038F4803279F099
S11306408332A1F4232D20611DC08D3261F08033EB
S113065069F4232D216016C0832D8260382EE32D8A
S1130660E4603E2E2AC0F32DF8601DC037FC2DC077
S113067020ED280F2A3040F08E32B9F436FC81C1C7
S1130680232D2064322E19C036FE06C08AE0989EBF
S1130690200D1124922E11C0EAE02E9E200D11246B
S11306A0222EF32DF0623F2E08C08C3621F4832DC8
S11306B08068382E02C0883641F4F70193FD859195
S11306C093FF81917F018111B3CF982F9F7D955422
S11306D0933028F40C5F1F4F9FE399830DC083363A
S11306E031F0833771F0833509F059C021C0F80126
S11306F0808189830E5F1F4F88248394912C53013A
S113070013C02801F2E04F0E511CF801A080B18003
S113071036FE03C0692D70E002C06FEF7FEFC501A4
S11307200E94D6044C018201F32DFF773F2E16C0A0
S1130730280122E0420E511CF801A080B18036FE4F
S113074003C0692D70E002C06FEF7FEFC5010E9406
S1130750CB044C01F32DF0683F2E820133FC1BC007
S1130760822D90E088169906B0F4B60180E290E0FC
S11307700E94E1042A94F4CFF50137FC859137FEF9
S113078081915F01B60190E00E94E10421102A9456
S113079021E0821A91088114910471F7E8C084362B
S11307A011F0893641F5F80137FE07C06081718187
S11307B0828193810C5F1F4F08C060817181072E75
S11307C0000C880B990B0E5F1F4FF32DFF763F2E05
S11307D097FF09C090958095709561957F4F8F4FD5
S11307E09F4FF0683F2E2AE030E0A3010E941D05D0
S11307F0882E861845C0853731F4232D2F7EB22EDE
S11308002AE030E025C0932D997FB92E8F36C1F0B0
S113081018F4883579F0B5C0803719F0883721F09D
S1130820B0C0E92FE061BE2EB4FE0DC0FB2DF46014
S1130830BF2E09C034FE0AC0292F2660B22E06C07E
S113084028E030E005C020E130E002C020E132E0E1
S1130850F801B7FE07C060817181828193810C5FCA
S11308601F4F06C06081718180E090E00E5F1F4FD2
S1130870A3010E941D05882E8618FB2DFF773F2EAD
S113088036FE0DC0232D2E7FA22E891458F434FE7B
S11308900BC032FC09C0832D8E7EA82E05C0B82C57
S11308A0A32C03C0B82C01C0B92CA4FE0FC0FE01B8
S11308B0E80DF11D8081803321F49A2D997EA92EB3
S11308C009C0A2FE06C0B394B39404C08A2D8678EE
S11308D009F0B394A3FC11C0A0FE06C0B21488F4BE
S11308E0280C922C9B180EC0B21460F4B60180E25E
S11308F090E00E94E104B394F7CFB21418F42B18DB
S113090002C0982C212CA4FE10C0B60180E390E014
S11309100E94E104A2FE17C0A1FC03C088E790E096
S113092002C088E590E0B6010CC08A2D867859F0A3
S1130930A1FE02C08BE201C080E2A7FC8DE2B601F9
S113094090E00E94E104891438F4B60180E390E059
S11309500E94E1049A94F7CF8A94F301E80DF11D03
S11309608081B60190E00E94E1048110F5CF22203D
S113097009F442CEB60180E290E00E94E1042A9498
S1130980F6CFF6018681978102C08FEF9FEF2B96F9
S1130990E2E10C949705FC01059061507040011050
S11309A0D8F7809590958E0F9F1F0895FC01615094
S11309B0704001900110D8F7809590958E0F9F1F7D
S11309C008950F931F93CF93DF93FB01238121FDA0
S11309D003C08FEF9FEF2CC022FF16C046815781C2
S11309E0248135814217530744F4A081B1819D01CC
S11309F02F5F3F4F318320838C93268137812F5F74
S1130A003F4F3783268314C08B01EC01FB01008424
S1130A10F185E02D0995892BE1F6D80116968D9183
S1130A209C911797019617969C938E931697CE01D7
S1130A30DF91CF911F910F910895FA01AA272830D1
S1130A4051F1203181F1E8946F936E7F6E5F7F4F97
S1130A508F4F9F4FAF4FB1E03ED0B4E03CD0670F13
S1130A60781F891F9A1FA11D680F791F8A1F911D66
S1130A70A11D6A0F711D811D911DA11D20D009F4B6
S1130A8068943F912AE0269F11243019305D3193F8
S1130A90DEF6CF010895462F4770405D4193B3E0E1
S1130AA00FD0C9F7F6CF462F4F70405D4A3318F088
S1130AB0495D31FD4052419302D0A9F7EACFB4E039
S1130AC0A6959795879577956795BA95C9F70097F1
S1130AD06105710508959B01AC010A2E0694579592
S1130AE0479537952795BA95C9F7620F731F841FE9
S1130AF0951FA01D08952F923F924F925F926F927F
S1130B007F928F929F92AF92BF92CF92DF92EF9299
S1130B10FF920F931F93CF93DF93CDB7DEB7CA1B1A
S1130B20DB0B0FB6F894DEBF0FBECDBF09942A8845
S1130B30398848885F846E847D848C849B84AA84ED
S1130B40B984C884DF80EE80FD800C811B81AA817A
S1130B50B981CE0FD11D0FB6F894DEBF0FBECDBF45
S10B0B60ED010895F894FFCFA4
S1130B6825752563430025752563432F257525635E
S1130B78460054454D502D2D2D2D2D2D0031343743
S10D0B882A323538303336392300A1
S9030000FC
