:020000020000FC
:02000000A8C096
:1000AC000000000000000000000000000000000044
:1000BC000895000000000000000000000000000097
:1000CC0000007A957030A9F70895282F8AEFF1DF98
:1000DC008AEFEFDF8AEFEDDF8AEFEBDF2A95203036
:1000EC00A9F7089581BB5F9ADBDF5F9808955E984E
:1000FC00F9DF8295F7DF8DE2DCDF08955E9AF2DF9F
:10010C008295F0DF8DE2D5DF089584E1DEDF5E9825
:10011C0080E3E8DF8AE0D9DF80E3E4DF8AE0D5DF43
:10012C0080E3E0DF8AE0D1DF80E2DCDF8DE2C1DF5B
:10013C0088E2DDDF8FE0DBDF81E0D9DF82E0C5DF45
:10014C0086E0D5DF08950FEF0DBF0AE00EBF0E94C9
:10015C00B2000E948B001DC00FEF04B900BB05B9A3
:10016C0001BB0FEF0AB900E00DB9089520E0322F62
:10017C00330F330F330F330F35B92F938AE0A5DFCD
:10018C002F91669904C023952C3089F72FE0822F8C
:10019C00089580E8ACDF8BE4B1DF85E4AFDF89E55F
:1001AC00ADDF8AE3ABDF80ECA2DFE0DF8F30E9F379
:1001BC00082F8F938A508F9130F4805D9FDFD6DFAC
:0C01CC000817E9F3F2CF895FF8CFFFCFEE
:00000001FF
