S00C00006C6162342E73726563B5
S11300000C9456000C946B000C946B000C946B00D5
S11300100C946B000C946B000C946B000C946B00B0
S11300200C946B000C946B000C946B000C946B00A0
S11300300C946B000C946B000C946B000C946B0090
S11300400C946B000C946B000C946B000C946B0080
S11300500C946B000C946B000C946B000C946B0070
S11300600C946B000C946B000C946B000C946B0060
S11300700C946B000C946B000C946B000C946B0050
S11300800C946B000C946B000C946B000C946B0040
S11300900C946B000C946B000C946B000C946B0030
S11300A00C946B000C946B000C946B0011241FBE19
S11300B0CFEFDAE0DEBFCDBF11E0A0E0B1E0E8E3CE
S11300C0FDE002C005900D92A23CB107D9F70E9451
S11300D0F3010C949A060C94000000000000000048
S11300E0000000000000000000000895000000006F
S11300F00000000000000000000000008A9580302D
S1130100A9F70895282F8AEFF1DF8AEFEFDF8AEF4E
S1130110EDDF8AEFEBDF2A952030A9F70895282F29
S11301208AEFF0DF8AEFEEDF8AEFECDF8AEFEADFB7
S11301302A95203041F708958AEFE4DF8AEFE2DF61
S11301408AEFE0DF8AEFDEDF0895EF92FF920F93EC
S11301501F93CF93DF93CDB7DEB761970FB6F894B3
S1130160DEBF0FBECDBF7C0143E064E071E080E1FF
S113017091E00E94B70100E010E0BE016F5F7F4F85
S11301808EE191E00E943401882371F089819A8183
S11301909C01215031092436310530F40F5F1F4F83
S11301A0E816F90669F508C041E06CE271E08BE3FA
S11301B091E00E94B701E1CF41E06DE971E08AE48A
S11301C091E00E94B7011F930F938AE591E09F93FA
S11301D08F93CE0101967C019F938F930E948E038F
S11301E043E06DE971E0C7010E94B7010F900F90E1
S11301F00F900F900F900F9008301105E0F413C08A
S11302008E159F0540F441E06DE971E086E691E0CA
S11302100E94B701B2CF41E06DE971E08FE691E051
S11302200E94B701AACF43E06DE971E089E791E04C
S11302300E94B70107C043E063E871E080E991E000
S11302400E94B70161960FB6F894DEBF0FBECDBF12
S1130250DF91CF911F910F91FF90EF9008950E942D
S1130260D7010E9432020895EF92FF920F931F93D9
S1130270CF93DF9300D000D0CDB7DEB78C017B01E4
S11302800E942402C8010E946A028FE00E942C028C
S113029060E081E00E94600200E00E94DB01182F10
S11302A08823D9F3833229F18A3281F40023E1F0DF
S11302B00150602F81E00E9460028CE991E00E946D
S11302C06A02602F81E00E9460020EC0033060F475
S11302D0682F81E00E941002E1E0F0E0EC0FFD1FC6
S11302E0E00FF11D10830F5F0E94DB018111FCCF31
S11302F0D4CFFE01E00FF11D1182002361F12FEF35
S1130300200FFE01E20FF11D4181405350E02223F2
S1130310F9F08AE090E02150E1E0F0E0EC0FFD1FFD
S1130320E20FF11D30813053389FB001399F700DB9
S11303301124460F571FBC01660F771F880F991FA2
S1130340880F991F880F991F860F971F2111E3CFDC
S1130350F70151834083802F0F900F900F900F90DF
S1130360DF91CF911F910F91FF90EF900895EF923D
S1130370FF920F931F93CF937C018B01C42F8CE0CA
S11303800E942C020E942402C7010E946A0260E0BB
S113039081E00E946002C8010E946A028C2F0E94C0
S11303A08F00CF911F910F91FF90EF9008951DB88A
S11303B080EF84B90895CF93C0E085B18C2F8295E6
S11303C0807F85B98AE00E948200669B06C0EC2F7C
S11303D0F0E0E256FE4F808104C0CF5FCC3069F775
S11303E080E0CF9108950E942F010E947B0243E098
S11303F06AEA71E088EB91E00E94B70184E690E03C
S11304000E94980201960E94A500F8CF91B39F70B4
S1130410807F892B81BB5F9A0E946D005F9808954D
S1130420CF93C62F811102C05E9801C05E9A8C2FB3
S11304300E9406028C2F8295807F0E9406028DE224
S11304400E947600CF91089561E080E00E9410023E
S113045082E00E9482000895682F6C6080E00E9410
S11304601002089580EF80BB80EC8AB984E10E9479
S113047082005E9880E30E9406028AE00E94820065
S113048080E30E9406028AE00E94820080E30E94C8
S113049006028AE00E94820080E20E9406028DE247
S11304A00E94760068E280E00E9410028FE00E94C1
S11304B02C020E94240266E080E00E94100208954B
S11304C020E4829FC00111246068682B80E00E94B0
S11304D010020895CF93DF93FC016081662341F0FD
S11304E0EC01219681E00E94100269916111FACF1A
S11304F0DF91CF91089580E480937C00EAE7F0E0F7
S113050087E0808380E8808381E080937E0080811F
S113051080648083808184FFFDCF80917900609125
S1130520780070E0782B80E090E00E9485030895C5
S1130530CF93DF93009751F0EC010E9437039E01A3
S113054040E050E00E94AB02CB0102C080E090E0AA
S1130550DF91CF910895052E97FB1EF400940E941D
S1130560C20257FD07D00E94CA0207FC03D04EF412
S11305700C94C20250954095309521953F4F4F4FB2
S11305805F4F089590958095709561957F4F8F4F3B
S11305909F4F0895A1E21A2EAA1BBB1BFD010DC09B
S11305A0AA1FBB1FEE1FFF1FA217B307E407F5071F
S11305B020F0A21BB30BE40BF50B661F771F881FFB
S11305C0991F1A9469F760957095809590959B0191
S11305D0AC01BD01CF0108958F929F92AF92BF925B
S11305E0CF92DF92EF92FF92CF93DF93EC01688179
S11305F079818A819B81611571058105910521F4B9
S113060064E279ED8BE597E02DE133EF41E050E0D2
S11306100E94AB0249015A019B01AC01A7EAB1E473
S11306200E9441066B017C01ACEEB4EFA50194017C
S11306300E944F06DC01CB018C0D9D1DAE1DBF1D1C
S1130640B7FF03C00197A109B04888839983AA839F
S1130650BB83BC01CD019F77DF91CF91FF90EF90D9
S1130660DF90CF90BF90AF909F908F9008958F921E
S11306709F92AF92BF92CF92DF92EF92FF926091DE
S113068000017091010180910201909103016115B3
S113069071058105910521F464E279ED8BE597E01C
S11306A02DE133EF41E050E00E94AB0249015A01D1
S11306B09B01AC01A7EAB1E40E9441066B017C01F5
S11306C0ACEEB4EFA50194010E944F06DC01CB010E
S11306D08C0D9D1DAE1DBF1DB7FF03C00197A10961
S11306E0B0488093000190930101A0930201B0935C
S11306F00301BC01CD019F77FF90EF90DF90CF9075
S1130700BF90AF909F908F90089560930001709375
S1130710010180930201909303010895AEE0B0E0DB
S1130720E4E9F3E00C9462060D891E8986E08C836B
S11307301A8309838FEF9FE79E838D83AE01475E03
S11307405F4F6F89788DCE0101960E94B003EF81CF
S1130750F885E00FF11F10822E96E4E00C947E06DB
S1130760ABE0B0E0E6EBF3E00C9454066C017B01E3
S11307708A01FC0117821682838181FFCCC1CE01DC
S113078001963C01F6019381F70193FD859193FF56
S113079081917F01882309F4BAC1853239F493FD2C
S11307A0859193FF81917F01853229F4B60190E010
S11307B00E94A705E7CF912C212C312CFFE1F315E2
S11307C0D8F08B3279F038F4803279F08332A1F4A6
S11307D0232D20611DC08D3261F0803369F4232DF7
S11307E0216016C0832D8260382EE32DE4603E2EF6
S11307F02AC0F32DF8601DC037FC2DC020ED280F52
S11308002A3040F08E32B9F436FC81C1232D2064A5
S1130810322E19C036FE06C08AE0989E200D11249F
S1130820922E11C0EAE02E9E200D1124222EF32DCB
S1130830F0623F2E08C08C3621F4832D8068382E58
S113084002C0883641F4F70193FD859193FF8191AD
S11308507F018111B3CF982F9F7D9554933028F455
S11308600C5F1F4F9FE399830DC0833631F08337AC
S113087071F0833509F059C021C0F8018081898362
S11308800E5F1F4F88248394912C530113C02801B9
S1130890F2E04F0E511CF801A080B18036FE03C077
S11308A0692D70E002C06FEF7FEFC5010E949C05C7
S11308B04C018201F32DFF773F2E16C0280122E060
S11308C0420E511CF801A080B18036FE03C0692D90
S11308D070E002C06FEF7FEFC5010E9491054C01EB
S11308E0F32DF0683F2E820133FC1BC0822D90E073
S11308F088169906B0F4B60180E290E00E94A7053C
S11309002A94F4CFF50137FC859137FE81915F017C
S1130910B60190E00E94A70521102A9421E0821AD2
S113092091088114910471F7E8C0843611F0893676
S113093041F5F80137FE07C060817181828193819E
S11309400C5F1F4F08C060817181072E000C880B5B
S1130950990B0E5F1F4FF32DFF763F2E97FF09C0B3
S113096090958095709561957F4F8F4F9F4FF0685C
S11309703F2E2AE030E0A3010E94E305882E86186A
S113098045C0853731F4232D2F7EB22E2AE030E086
S113099025C0932D997FB92E8F36C1F018F4883570
S11309A079F0B5C0803719F0883721F0B0C0E92F4D
S11309B0E061BE2EB4FE0DC0FB2DF460BF2E09C055
S11309C034FE0AC0292F2660B22E06C028E030E08B
S11309D005C020E130E002C020E132E0F801B7FEBA
S11309E007C060817181828193810C5F1F4F06C0B3
S11309F06081718180E090E00E5F1F4FA3010E942F
S1130A00E305882E8618FB2DFF773F2E36FE0DC09A
S1130A10232D2E7FA22E891458F434FE0BC032FCF1
S1130A2009C0832D8E7EA82E05C0B82CA32C03C02C
S1130A30B82C01C0B92CA4FE0FC0FE01E80DF11DB5
S1130A408081803321F49A2D997EA92E09C0A2FEBB
S1130A5006C0B394B39404C08A2D867809F0B39485
S1130A60A3FC11C0A0FE06C0B21488F4280C922C7A
S1130A709B180EC0B21460F4B60180E290E00E94AC
S1130A80A705B394F7CFB21418F42B1802C0982C0E
S1130A90212CA4FE10C0B60180E390E00E94A705BB
S1130AA0A2FE17C0A1FC03C088E790E002C088E55D
S1130AB090E0B6010CC08A2D867859F0A1FE02C0E0
S1130AC08BE201C080E2A7FC8DE2B60190E00E94B7
S1130AD0A705891438F4B60180E390E00E94A705C5
S1130AE09A94F7CF8A94F301E80DF11D8081B60141
S1130AF090E00E94A7058110F5CF222009F442CE90
S1130B00B60180E290E00E94A7052A94F6CFF60190
S1130B108681978102C08FEF9FEF2B96E2E10C94C0
S1130B207006FC010590615070400110D8F7809563
S1130B3090958E0F9F1F0895FC01615070400190A5
S1130B400110D8F7809590958E0F9F1F08950F93ED
S1130B501F93CF93DF93FB01238121FD03C08FEF0C
S1130B609FEF2CC022FF16C0468157812481358116
S1130B704217530744F4A081B1819D012F5F3F4F79
S1130B80318320838C93268137812F5F3F4F3783B6
S1130B90268314C08B01EC01FB010084F185E02D58
S1130BA00995892BE1F6D80116968D919C9117979A
S1130BB0019617969C938E931697CE01DF91CF9151
S1130BC01F910F910895FA01AA27283051F120317D
S1130BD081F1E8946F936E7F6E5F7F4F8F4F9F4FCD
S1130BE0AF4FB1E03ED0B4E03CD0670F781F891F0F
S1130BF09A1FA11D680F791F8A1F911DA11D6A0FDD
S1130C00711D811D911DA11D20D009F468943F918F
S1130C102AE0269F11243019305D3193DEF6CF018E
S1130C200895462F4770405D4193B3E00FD0C9F754
S1130C30F6CF462F4F70405D4A3318F0495D31FDC1
S1130C404052419302D0A9F7EACFB4E0A695979514
S1130C50879577956795BA95C9F7009761057105EA
S1130C6008959B01AC010A2E069457954795379534
S1130C702795BA95C9F7620F731F841F951FA01D8E
S1130C8008950E948B06A59F900DB49F900DA49F7C
S1130C90800D911D11240895B7FF0C9441060E9404
S1130CA04106821B930B08952F923F924F925F92BD
S1130CB06F927F928F929F92AF92BF92CF92DF9268
S1130CC0EF92FF920F931F93CF93DF93CDB7DEB7CD
S1130CD0CA1BDB0B0FB6F894DEBF0FBECDBF099461
S1130CE02A88398848885F846E847D848C849B84B8
S1130CF0AA84B984C884DF80EE80FD800C811B81C6
S1130D00AA81B981CE0FD11D0FB6F894DEBF0FBEF4
S1130D10CDBFED010895A29FB001B39FC001A39F71
S1130D20700D811D1124911DB29F700D811D112420
S10B0D30911D0895F894FFCF12
S1130D3801000000746865206E756D6265723F007D
S1130D4843616E20796F7520677565737300456E0E
S1130D58746572206E756D6265723A0062657477A7
S1130D6865656E20312D3130302100456E74657211
S1130D782061206E756D62657200436F72726563DF
S1130D8874206E756D6265722100477565737365AD
S1130D98733A20257500546F6F206C6F77210054C7
S1130DA86F6F20686967682100476F6F64206A6FF6
S1130DB86221006E6578742074696D652E2E2E008C
S1130DC8426574746572206C75636B00200031345D
S1130DD8372A32353830333639234C657427732033
S1130DE8706C61792E2E2E0057656C636F6D6521CA
S1050DF80000F5
S9030000FC
