:100000000C9456000C946B000C946B000C946B00D9
:100010000C946B000C946B000C946B000C946B00B4
:100020000C946B000C946B000C946B000C946B00A4
:100030000C946B000C946B000C946B000C946B0094
:100040000C946B000C946B000C946B000C946B0084
:100050000C946B000C946B000C946B000C946B0074
:100060000C946B000C946B000C946B000C946B0064
:100070000C946B000C94E8010C946B000C946B00D6
:100080000C946B000C946B000C946B000C946B0044
:100090000C946B000C946B000C946B000C946B0034
:1000A0000C946B000C946B000C946B0011241FBE1D
:1000B000CFEFDAE0DEBFCDBF11E0A0E0B1E0E6E7D0
:1000C000FAE002C005900D92A432B107D9F70E9460
:1000D0004A010C9439050C94000000000000000057
:1000E0000000000000000000000008950000000073
:1000F0000000000000000000000000008A95803031
:10010000A9F70895282F8AEFF1DF8AEFEFDF8AEF52
:10011000EDDF8AEFEBDF2A952030A9F70895282F2D
:100120002F938AEFEFDF8AEFEDDF8AEFEBDF8AEFC5
:10013000E9DF2F912A95203031F708958AEFE2DF29
:100140008AEFE0DF8AEFDEDF8AEFDCDF08950E94CE
:10015000CB010E9402010895EF92FF920F931F932B
:10016000CF937C018B01C42F8CE00E94FC000E9485
:10017000F400C7010E943C0160E081E00E9432016E
:10018000C8010E943C01CC2319F08C2F0E948F00E3
:10019000CF911F910F91FF90EF90089591B39F70B1
:1001A000807F892B81BB8BB180688BB90E946D00E9
:1001B0008BB18F778BB90895CF93C62F811104C06F
:1001C0008BB18F7B8BB903C08BB180648BB98C2FC3
:1001D0000E94CE008C2F8295807F0E94CE008DE2FF
:1001E0000E947600CF91089561E080E00E94DC00DB
:1001F00082E00E9482000895682F6C6080E00E9477
:10020000DC00089580EF80BB80EC8AB984E10E9415
:1002100082008BB18F7B8BB980E30E94CE008AE095
:100220000E94820080E30E94CE008AE00E94820049
:1002300080E30E94CE008AE00E94820080E20E9459
:10024000CE008DE20E94760068E280E00E94DC0031
:100250008FE00E94FC000E94F40066E080E00E94B3
:10026000DC00089520E4829FC0011124682B60689F
:1002700080E00E94DC000895CF93DF93EC0104C07E
:1002800081E00E94DC00219668816111F9CFDF9145
:10029000CF910895CF93DF93CDB7DEB761970FB6B7
:1002A000F894DEBF0FBECDBF0E94A7000E94F801E8
:1002B0000E94AB0110E00E94CF01082F0E941B0298
:1002C000F82E1130A9F018F01230E1F03BC08FE4A5
:1002D00096E49A83898386E490E09C838B8302333F
:1002E00019F4F11001C011E080E00E94BE012AC0A3
:1002F0008FE49EE49A8389831B82013301F1F1101C
:1003000020C020C00E941B021F9295E29F931F9263
:100310008F9381E091E09F938F93CE0101969F93FD
:100320008F930E944F020FB6F894DEBF0FBECDBF71
:10033000013309F410E08F2D0E94BE0103C010E0CC
:1003400001C012E040E0BE016F5F7F4F81E191E0AC
:100350000E94AC00B0CF8FEF87B9E0E9F0E0808178
:1003600080688083808189608083E1E9F0E080811A
:1003700089608083808183608083089510929900D2
:100380002FEF829FC001112464E670E00E942702D3
:100390006093980008951DB880EF84B90895CF93B5
:1003A000C0E011C085B18C2F8295807F85B98AE02D
:1003B0000E948200669B06C0EC2FF0E0E95EFE4FD3
:1003C000808104C0CF5FCC3068F380E0CF91089586
:1003D0001F920F920FB60F9211248F938091790084
:1003E000809300018F910F900FBE0F901F90189572
:1003F000ECE7F0E08081806480838081816080838D
:10040000808180628083EAE7F0E08081876080837A
:100410008081806280838081886080838081806821
:10042000808383E080937E001092D800789480814E
:100430008064808308958091000128E2829FC0013A
:10044000112466E670E00E942702862F089597FB2C
:10045000072E16F4009407D077FD09D00E943B02C6
:1004600007FC05D03EF4909581959F4F08957095B7
:1004700061957F4F0895AA1BBB1B51E107C0AA1FBE
:10048000BB1FA617B70710F0A61BB70B881F991F35
:100490005A95A9F780959095BC01CD010895AEE0DD
:1004A000B0E0E5E5F2E00C9410050D891E8986E0C8
:1004B0008C831A8309838FEF9FE79E838D83AE0120
:1004C000475E5F4F6F89788DCE0101960E94710261
:1004D000EF81F885E00FF11F10822E96E4E00C9476
:1004E0002C05ABE0B0E0E7E7F2E00C9402056C010C
:1004F0007B018A01FC0117821682838181FFCCC1B6
:10050000CE0101963C01F6019381F70193FD85919F
:1005100093FF81917F01882309F4BAC1853239F4B0
:1005200093FD859193FF81917F01853229F4B60176
:1005300090E00E946804E7CF912C212C312CFFE140
:10054000F315D8F08B3279F038F4803279F08332B9
:10055000A1F4232D20611DC08D3261F0803369F438
:10056000232D216016C0832D8260382EE32DE46098
:100570003E2E2AC0F32DF8601DC037FC2DC020EDA3
:10058000280F2A3040F08E32B9F436FC81C1232D79
:100590002064322E19C036FE06C08AE0989E200DD7
:1005A0001124922E11C0EAE02E9E200D1124222E3D
:1005B000F32DF0623F2E08C08C3621F4832D806825
:1005C000382E02C0883641F4F70193FD859193FFE0
:1005D00081917F018111B3CF982F9F7D95549330E6
:1005E00028F40C5F1F4F9FE399830DC0833631F0D1
:1005F000833771F0833509F059C021C0F80180813B
:1006000089830E5F1F4F88248394912C530113C05C
:100610002801F2E04F0E511CF801A080B18036FE97
:1006200003C0692D70E002C06FEF7FEFC5010E942B
:100630005D044C018201F32DFF773F2E16C0280187
:1006400022E0420E511CF801A080B18036FE03C0AA
:10065000692D70E002C06FEF7FEFC5010E94520468
:100660004C01F32DF0683F2E820133FC1BC0822D1C
:1006700090E088169906B0F4B60180E290E00E94FE
:1006800068042A94F4CFF50137FC859137FE8191F7
:100690005F01B60190E00E94680421102A9421E0D5
:1006A000821A91088114910471F7E8C0843611F020
:1006B000893641F5F80137FE07C06081718182817A
:1006C00093810C5F1F4F08C060817181072E000C61
:1006D000880B990B0E5F1F4FF32DFF763F2E97FF70
:1006E00009C090958095709561957F4F8F4F9F4F72
:1006F000F0683F2E2AE030E0A3010E94A404882E77
:10070000861845C0853731F4232D2F7EB22E2AE07E
:1007100030E025C0932D997FB92E8F36C1F018F4A3
:10072000883579F0B5C0803719F0883721F0B0C02E
:10073000E92FE061BE2EB4FE0DC0FB2DF460BF2E8C
:1007400009C034FE0AC0292F2660B22E06C028E058
:1007500030E005C020E130E002C020E132E0F801E5
:10076000B7FE07C060817181828193810C5F1F4F4A
:1007700006C06081718180E090E00E5F1F4FA30191
:100780000E94A404882E8618FB2DFF773F2E36FE8C
:100790000DC0232D2E7FA22E891458F434FE0BC0D9
:1007A00032FC09C0832D8E7EA82E05C0B82CA32C48
:1007B00003C0B82C01C0B92CA4FE0FC0FE01E80D87
:1007C000F11D8081803321F49A2D997EA92E09C0D4
:1007D000A2FE06C0B394B39404C08A2D867809F0B3
:1007E000B394A3FC11C0A0FE06C0B21488F4280C78
:1007F000922C9B180EC0B21460F4B60180E290E017
:100800000E946804B394F7CFB21418F42B1802C0F6
:10081000982C212CA4FE10C0B60180E390E00E9429
:100820006804A2FE17C0A1FC03C088E790E002C0E4
:1008300088E590E0B6010CC08A2D867859F0A1FEBB
:1008400002C08BE201C080E2A7FC8DE2B60190E01D
:100850000E946804891438F4B60180E390E00E9495
:1008600068049A94F7CF8A94F301E80DF11D808112
:10087000B60190E00E9468048110F5CF222009F4AF
:1008800042CEB60180E290E00E9468042A94F6CF3E
:10089000F6018681978102C08FEF9FEF2B96E2E1F0
:1008A0000C941E05FC010590615070400110D8F7B2
:1008B000809590958E0F9F1F0895FC0161507040A8
:1008C00001900110D8F7809590958E0F9F1F089585
:1008D0000F931F93CF93DF93FB01238121FD03C06F
:1008E0008FEF9FEF2CC022FF16C0468157812481D5
:1008F00035814217530744F4A081B1819D012F5FD8
:100900003F4F318320838C93268137812F5F3F4F68
:100910003783268314C08B01EC01FB010084F18531
:10092000E02D0995892BE1F6D80116968D919C91C1
:100930001797019617969C938E931697CE01DF9189
:10094000CF911F910F910895FA01AA27283051F1F4
:10095000203181F1E8946F936E7F6E5F7F4F8F4FF0
:100960009F4FAF4FB1E03ED0B4E03CD0670F781F4F
:10097000891F9A1FA11D680F791F8A1F911DA11D34
:100980006A0F711D811D911DA11D20D009F468946D
:100990003F912AE0269F11243019305D3193DEF615
:1009A000CF010895462F4770405D4193B3E00FD0CB
:1009B000C9F7F6CF462F4F70405D4A3318F0495DB6
:1009C00031FD4052419302D0A9F7EACFB4E0A69599
:1009D0009795879577956795BA95C9F700976105BB
:1009E000710508959B01AC010A2E06945795479511
:1009F00037952795BA95C9F7620F731F841F951F06
:100A0000A01D08952F923F924F925F926F927F9216
:100A10008F929F92AF92BF92CF92DF92EF92FF920E
:100A20000F931F93CF93DF93CDB7DEB7CA1BDB0BBA
:100A30000FB6F894DEBF0FBECDBF09942A8839885F
:100A400048885F846E847D848C849B84AA84B98466
:100A5000C884DF80EE80FD800C811B81AA81B98172
:100A6000CE0FD11D0FB6F894DEBF0FBECDBFED0186
:060A70000895F894FFCF89
:100A7600DD52554E4E494E4720415420257525637B
:100A8600004D4F544F52003134372A323538303307
:040A960036392300CA
:00000001FF
