:020000020000FC
:020000003FC2FD
:1000AC000000000000000000000000000000000044
:1000BC000895000000000000000000000000000097
:1000CC0000007A957030A9F70895282F8AEFF1DF98
:1000DC008AEFEFDF8AEFEDDF8AEFEBDF2A95203036
:1000EC00A9F708958AEFF1DF8AEFEFDF8AEFEDDFF2
:1000FC008AEFEBDF089557656C636F6D6521000027
:10010C0081BB5F9ACDDF5F9808955E9881E001D046
:10011C0008955E98F5DF8295F3DF8DE2CADF0895CE
:10012C008591803011F002D0FBCF08955E9AE8DF04
:10013C008295E6DF8DE2BDDF089584E1C6DF5E982F
:10014C0080E3DEDF8AE0C1DF80E3DADF8AE0BDDF57
:10015C0080E3D6DF8AE0B9DF80E2D2DF8DE2A9DF6F
:10016C0088E2D7DF8FE0D5DF81E0D3DF82E0ADDF3F
:10017C0086E0CFDF089520E0322F330F330F330F9B
:10018C00330F35B92F938AE0A0DF2F91669904C005
:10019C0023952C3089F72FE0822F0895F4E0E6E5C3
:1001AC00E80F80E0F81F84910895E5DFF7DF0895EC
:1001BC0006E000000000F9DF823309F008950A958B
:1001CC00B9F3F7CFB1E0A0E0FC90F394FC92A00F50
:1001DC008C9183958C930895B1E0A0E0A80F80E0FA
:1001EC00B81F8C91089500E0009300010093010169
:1001FC000093020100930301009304010093050195
:10020C00009306010895436C656172696E672E2E2A
:10021C002E00546F74616C3A200023203127733AFE
:10022C00200023203227733A200023203327733AEF
:10023C00200023203427733A200023203527733ADB
:10024C00200023203627733A2000CDDF089530316B
:10025C003233343536373839414243444546F2E07F
:10026C00EAE5582E82958F70E80F6624F61D84916E
:10027C005DDF852D8F70EAE5F2E0E80F6624F61D50
:10028C00849154DF0895482F483C20F082E34EDFE0
:10029C00485C08C0443620F081E348DF445602C075
:1002AC0080E344DF01E01AE08894411718F00395CD
:1002BC00165FFACF1A50411B4F930A95802F805D21
:1002CC0035DF8F91805D32DF08951FDF82E0FDDE28
:1002DC00F2E0EEE125DF80E07FDF8F93C0DF88E284
:1002EC0025DF8F91D0DF89E221DFFCDE0EDF82E09B
:1002FC00ECDEF2E0E6E214DF81E06EDF8F93AFDF3D
:10030C0088E214DF8F91BFDF89E210DFEBDEFDDEC8
:10031C0082E0DBDEF2E0EEE203DF82E05DDF8F9372
:10032C009EDF88E203DF8F91AEDF89E2FFDEDADE4B
:10033C00ECDE82E0CADEF2E0E6E3F2DE83E04CDFE4
:10034C008F938DDF88E2F2DE8F919DDF89E2EEDE06
:10035C00C9DEDBDE82E0B9DEF2E0EEE3E1DE84E072
:10036C003BDF8F937CDF88E2E1DE8F918CDF89E2CB
:10037C00DDDEB8DECADE82E0A8DEF2E0E6E4D0DE46
:10038C0085E02ADF8F936BDF88E2D0DE8F917BDFF5
:10039C0089E2CCDEA7DEB9DE82E097DEF2E0EEE4A5
:1003AC00BFDE86E019DF8F935ADF88E2BFDE8F91C4
:1003BC006ADF89E2BBDE96DEA8DE0895A6DE82E067
:1003CC0084DEF2E0E2E1ACDE0EDF08954D6F6E6983
:1003DC00746F72000895CFDE833049F08B3039F0A2
:1003EC008F3011F4382EF7CF8315A9F3382E0895DA
:1003FC008EE39CDE8B2F33DF8A2F31DF8AE396DE90
:10040C00089583DE82E061DEF3E0E8ED89DE6ADEEA
:10041C00B0E0A0E07ADE82E058DEEADF8D918F93C7
:10042C001EDF88E283DE8F912EDF89E27FDED3DF51
:10043C00833051F08B3029F0B1DE8053B82FAA27CE
:10044C00E9CF88EC42DEE6CF08953134372A3235D5
:10045C003830333639230000000F48656C6C6F0060
:10046C00526F6C6C696E672E2E2E000056616C7587
:10047C00653A20000FEF0DBF0AE00EBF0E944D023F
:10048C000E94A3000E942B010E94F0010CC00FEFF0
:10049C0004B900BB05B901BB0FEF0AB900E00DB9F7
:1004AC000895F1E0E2E0F4E0E6E63ADE01D0FECFBA
:1004BC007CDE823339F08333D1F08833D1F0893349
:1004CC00D1F0F4CF22DE82E000DEF4E0ECE628DEB0
:1004DC006FDE1BDE82E0F9DD802F805D8F93F4E010
:1004EC00E8E71EDE8F9122DE6DDEFCDDDFCFEDDE78
:0A04FC00DDCF79DEDBCF85DFD9CF3D
:00000001FF
